:020000040800F2
:100000000000102449430008493B00084B3B00080E
:100010004D3B00084F3B0008513B0008000000002A
:10002000000000000000000000000000533B00083A
:10003000553B000800000000573B0008593B0008F2
:100040009D4300089D4300089D4300089D43000810
:100050009D4300089D4300089D4300089D43000800
:100060009D4300089D4300089D4300089D430008F0
:100070009D4300089D4300089D4300089D430008E0
:100080009D4300089D430008613B00089D43000814
:100090009D4300089D4300089D430008713B0008F4
:1000A0007D3B00088D3B00089D3B0008AD3B0008F0
:1000B0009D4300089D4300089D4300089D430008A0
:1000C0009D4300089D4300089D4300089D43000890
:1000D0009D4300089D4300089D4300089D43000880
:1000E000BD3B00089D4300089D4300089D43000858
:1000F0009D4300089D4300089D4300089D43000860
:100100009D430008E13B00089D4300089D43000813
:100110009D4300089D430008F13B0008013C000896
:100120009D4300089D4300089D4300089D4300082F
:100130009D43000800000000000000009D430008EF
:100140009D4300089D4300089D4300089D4300080F
:100150009D4300089D430008113C00089D43000892
:100160009D4300089D4300089D4300089D430008EF
:100170009D4300089D4300089D4300089D430008DF
:100180009D4300089D4300089D4300089D430008CF
:100190009D4300089D4300089D4300089D430008BF
:1001A0009D4300089D4300089D4300089D430008AF
:1001B0009D4300089D4300089D4300089D4300089F
:1001C0009D4300089D43000800000000000000005F
:1001D00000000000000000009D4300080000000037
:1001E000000000000000000000000000000000000F
:1001F00000000000000000009D4300089D4300082F
:100200009D4300089D430008000000009D43000836
:100210009D4300089D4300089D4300089D4300083E
:100220009D4300089D4300089D4300080000000016
:100230009D4300089D430008000000009D43000806
:100240009D4300089D4300089D4300089D4300080E
:100250009D4300089D4300089D4300089D430008FE
:100260009D4300089D4300089D4300089D430008EE
:100270009D4300089D4300089D43000800000000C6
:100280009D4300089D430008000000009D430008B6
:10029000000000009D4300089D4300089D430008A6
:0C02A0009D4300089D4300089D4300089A
:1002C00081F0004102E000BF83F0004330B54FEA07
:1002D00041044FEA430594EA050F08BF90EA020F74
:1002E0001FBF54EA000C55EA020C7FEA645C7FEA07
:1002F000655C00F0E2804FEA5454D4EB5555B8BF2A
:100300006D420CDD2C4480EA020281EA030382EA9A
:10031000000083EA010180EA020281EA0303362D2C
:1003200088BF30BD11F0004F4FEA01314FF4801CFF
:100330004CEA113102D0404261EB410113F0004F11
:100340004FEA03334CEA133302D0524263EB4303C8
:1003500094EA050F00F0A780A4F10104D5F1200E66
:100360000DDB02FA0EFC22FA05F2801841F10001C1
:1003700003FA0EF2801843FA05F359410EE0A5F195
:1003800020050EF1200E012A03FA0EFC28BF4CF0C6
:10039000020C43FA05F3C01851EBE37101F000457C
:1003A00007D54FF0000EDCF1000C7EEB00006EEB89
:1003B0000101B1F5801F1BD3B1F5001F0CD3490813
:1003C0005FEA30004FEA3C0C04F101044FEA44526A
:1003D00012F5800F80F09A80BCF1004F08BF5FEAF1
:1003E000500C50F1000041EB045141EA050130BDD1
:1003F0005FEA4C0C404141EB0101013C28BFB1F5E3
:10040000801FE9D291F0000F04BF01460020B1FA2D
:1004100081F308BF2033A3F10B03B3F120020CDA00
:100420000C3208DD02F1140CC2F10C0201FA0CF0DE
:1004300021FA02F10CE002F11402D8BFC2F1200C43
:1004400001FA02F120FA0CFCDCBF41EA0C019040F9
:10045000E41AA2BF01EB0451294330BD6FEA040442
:100460001F3C1CDA0C340EDC04F11404C4F120022D
:1004700020FA04F001FA02F340EA030021FA04F33F
:1004800045EA030130BDC4F10C04C4F1200220FA96
:1004900002F001FA04F340EA0300294630BD21FAD4
:1004A00004F0294630BD94F0000F83F4801306BF9A
:1004B00081F480110134013D4EE77FEA645C18BF8E
:1004C0007FEA655C29D094EA050F08BF90EA020F25
:1004D00005D054EA000C04BF1946104630BD91EA1D
:1004E000030F1EBF0021002030BD5FEA545C05D120
:1004F0004000494128BF41F0004130BD14F580045F
:100500003CBF01F5801130BD01F0004545F0FE41D2
:1005100041F470014FF0000030BD7FEA645C1ABF07
:10052000194610467FEA655C1CBF0B46024650EA3E
:10053000013406BF52EA033591EA030F41F400216A
:1005400030BD00BF90F0000F04BF0021704730B5F0
:100550004FF4806404F132044FF000054FF00001C5
:1005600050E700BF90F0000F04BF0021704730B586
:100570004FF4806404F1320410F0004548BF40425B
:100580004FF000013EE700BF42004FEAE2014FEAB0
:1005900031014FEA02701FBF12F07F4393F07F4F8B
:1005A00081F06051704732F07F4208BF704793F08E
:1005B0007F4F04BF41F40021704730B54FF46074A1
:1005C00001F0004521F000411CE700BF50EA0102A4
:1005D00008BF704730B54FF000050AE050EA01024D
:1005E00008BF704730B511F0004502D5404261EBBD
:1005F00041014FF4806404F132045FEA915C3FF4FE
:10060000D8AE4FF003025FEADC0C18BF03325FEA9A
:10061000DC0C18BF033202EBDC02C2F1200300FA4B
:1006200003FC20FA02F001FA03FE40EA0E0021FA70
:1006300002F11444BDE600BF70B54FF0FF0C4CF45E
:10064000E06C1CEA11541DBF1CEA135594EA0C0F10
:1006500095EA0C0F00F0DEF82C4481EA030621EA4B
:100660004C5123EA4C5350EA013518BF52EA033586
:1006700041F4801143F4801338D0A0FB02CE4FF038
:100680000005E1FB02E506F00042E0FB03E54FF068
:100690000006E1FB03569CF0000F18BF4EF0010E60
:1006A000A4F1FF04B6F5007F64F5407404D25FEA5C
:1006B0004E0E6D4146EB060642EAC62141EA55510F
:1006C0004FEAC52040EA5E504FEACE2EB4F1FD0C51
:1006D00088BFBCF5E06F1ED8BEF1004F08BF5FEACF
:1006E000500E50F1000041EB045170BD06F0004681
:1006F00046EA010140EA020081EA0301B4EB5C042E
:10070000C2BFD4EB0C0541EA045170BD41F4801125
:100710004FF0000E013C00F3AB8014F1360FDEBF4A
:10072000002001F0004170BDC4F10004203C35DA26
:100730000C341BDC04F11404C4F1200500FA05F3A9
:1007400020FA04F001FA05F240EA020001F000424A
:1007500021F0004110EBD37021FA04F642EB0601C0
:100760005EEA430E08BF20EAD37070BDC4F10C04EA
:10077000C4F1200500FA04F320FA05F001FA04F2AE
:1007800040EA020001F0004110EBD37041F100019A
:100790005EEA430E08BF20EAD37070BDC4F12005A5
:1007A00000FA05F24EEA020E20FA04F301FA05F20D
:1007B00043EA020321FA04F001F0004121FA04F2B5
:1007C00020EA020000EBD3705EEA430E08BF20EA85
:1007D000D37070BD94F0000F0FD101F000464000BF
:1007E00041EB010111F4801F08BF013CF7D041EA41
:1007F000060195F0000F18BF704703F00046520045
:1008000043EB030313F4801F08BF013DF7D043EA15
:100810000603704794EA0C0F0CEA135518BF95EACB
:100820000C0F0CD050EA410618BF52EA4306D1D152
:1008300081EA030101F000414FF0000070BD50EA71
:10084000410606BF1046194652EA430619D094EAFB
:100850000C0F02D150EA013613D195EA0C0F05D1E5
:1008600052EA03361CBF104619460AD181EA030139
:1008700001F0004141F0FE4141F470014FF00000F1
:1008800070BD41F0FE4141F4780170BD70B54FF08C
:10089000FF0C4CF4E06C1CEA11541DBF1CEA13550C
:1008A00094EA0C0F95EA0C0F00F0A7F8A4EB0504EE
:1008B00081EA030E52EA03354FEA013100F08880E5
:1008C0004FEA03334FF0805545EA131343EA1263AE
:1008D0004FEA022245EA111545EA10654FEA002663
:1008E0000EF000419D4208BF964244F1FD0404F51C
:1008F000407402D25B084FEA3202B61A65EB030578
:100900005B084FEA32024FF480104FF4002CB6EB34
:10091000020E75EB030E22BFB61A754640EA0C00B4
:100920005B084FEA3202B6EB020E75EB030E22BFF4
:10093000B61A754640EA5C005B084FEA3202B6EB35
:10094000020E75EB030E22BFB61A754640EA9C00F4
:100950005B084FEA3202B6EB020E75EB030E22BFC4
:10096000B61A754640EADC0055EA060E18D04FEA82
:10097000051545EA16754FEA06164FEAC30343EA22
:1009800052734FEAC2025FEA1C1CC0D111F4801FEF
:100990000BD141EA00014FF000004FF0004CB6E7E8
:1009A00011F4801F04BF01430020B4F1FD0C88BF87
:1009B000BCF5E06F3FF6AFAEB5EB030C04BFB6EB92
:1009C000020C5FEA500C50F1000041EB045170BD85
:1009D0000EF0004E4EEA113114EB5C04C2BFD4EBB2
:1009E0000C0541EA045170BD41F480114FF0000E36
:1009F000013C90E645EA060E8DE60CEA135594EAB2
:100A00000C0F08BF95EA0C0F3FF43BAF94EA0C0FB4
:100A10000AD150EA01347FF434AF95EA0C0F7FF429
:100A200025AF104619462CE795EA0C0F06D152EA7D
:100A300003353FF4FDAE1046194622E750EA410661
:100A400018BF52EA43067FF4C5AE50EA41047FF472
:100A50000DAF52EA43057FF4EBAE12E74FEA4102D5
:100A600012F5001215D211D56FF47873B3EB625200
:100A700012D94FEAC12343F0004343EA505311F027
:100A8000004F23FA02F018BF404270474FF00000B9
:100A9000704750EA013005D111F0004008BF6FF0F7
:100AA000004070474FF00000704700BF4A0011D26D
:100AB00012F5001211D20DD56FF47873B3EB6252B8
:100AC0000ED44FEAC12343F0004343EA505323FAC4
:100AD00002F070474FF00000704750EA013002D139
:100AE0004FF0FF3070474FF0000070474FEA41026F
:100AF000B2F1E04324BFB3F5001CDCF1FE5C0DD97C
:100B000001F0004C4FEAC0024CEA5070B2F1004FC5
:100B100040EB830008BF20F00100704711F0804FC8
:100B200021D113F13872BCBF01F00040704741F48D
:100B300080114FEA5252C2F11802C2F1200C10FA91
:100B40000CF320FA02F018BF40F001004FEAC12375
:100B50004FEAD32303FA0CFC40EA0C0023FA02F319
:100B60004FEA4303CCE77FEA625307D150EA0133EF
:100B70001EBF4FF0FE4040F44000704701F00040BF
:100B800040F0FE4040F40000704700BF80F000409D
:100B900002E000BF81F0004142001FBF5FEA410355
:100BA00092EA030F7FEA226C7FEA236C6AD04FEA55
:100BB0001262D2EB1363C1BFD2184140484041409A
:100BC000B8BF5B42192B88BF704710F0004F40F44C
:100BD000000020F07F4018BF404211F0004F41F468
:100BE000000121F07F4118BF494292EA030F3FD034
:100BF000A2F1010241FA03FC10EB0C00C3F1200347
:100C000001FA03F100F0004302D5494260EB4000D5
:100C1000B0F5000F13D3B0F1807F06D340084FEA40
:100C2000310102F10102FE2A51D2B1F1004F40EB35
:100C3000C25008BF20F0010040EA0300704749009D
:100C400040EB0000013A28BFB0F5000FEDD2B0FA3A
:100C500080FCACF1080CB2EB0C0200FA0CF0AABF5D
:100C600000EBC25052421843BCBFD04018437047FB
:100C700092F0000F81F4000106BF80F40000013201
:100C8000013BB5E74FEA41037FEA226C18BF7FEAD8
:100C9000236C21D092EA030F04D092F0000F08BF1A
:100CA0000846704790EA010F1CBF0020704712F001
:100CB0007F4F04D1400028BF40F00040704712F140
:100CC00000723CBF00F50000704700F0004343F0A5
:100CD000FE4040F4000070477FEA226216BF0846DB
:100CE0007FEA23630146420206BF5FEA412390EA9E
:100CF000010F40F4800070474FF0000304E000BF94
:100D000010F0004348BF40425FEA000C08BF704744
:100D100043F0964301464FF000001CE050EA010208
:100D200008BF70474FF000030AE000BF50EA01021D
:100D300008BF704711F0004302D5404261EB41010A
:100D40005FEA010C02BF84460146002043F0B6432F
:100D500008BFA3F18053A3F50003BCFA8CF2083A54
:100D6000A3EBC25310DB01FA02FC634400FA02FC5D
:100D7000C2F12002BCF1004F20FA02F243EB020064
:100D800008BF20F00100704702F1200201FA02FCC6
:100D9000C2F1200250EA4C0021FA02F243EB0200B9
:100DA00008BF20EADC7070474FF0FF0C1CEAD052FD
:100DB0001EBF1CEAD15392EA0C0F93EA0C0F6FD0BE
:100DC0001A4480EA010C400218BF5FEA41211ED09C
:100DD0004FF0006343EA501043EA5111A0FB013188
:100DE0000CF00040B1F5000F3EBF490041EAD3715D
:100DF0005B0040EA010062F17F02FD2A1DD8B3F1D9
:100E0000004F40EBC25008BF20F00100704790F047
:100E1000000F0CF0004C08BF49024CEA502040EA99
:100E200051207F3AC2BFD2F1FF0340EAC25070475F
:100E300040F400004FF00003013A5DDC12F1190F9D
:100E4000DCBF00F000407047C2F10002410021FA0F
:100E500002F1C2F1200200FA02FC5FEA310040F127
:100E6000000053EA4C0308BF20EADC70704792F0A0
:100E7000000F00F0004C02BF400010F4000F013AD8
:100E8000F9D040EA0C0093F0000F01F0004C02BFD3
:100E9000490011F4000F013BF9D041EA0C018FE742
:100EA0000CEAD15392EA0C0F18BF93EA0C0F0AD048
:100EB00030F0004C18BF31F0004CD8D180EA01006E
:100EC00000F00040704790F0000F17BF90F0004F07
:100ED000084691F0000F91F0004F14D092EA0C0FE9
:100EE00001D142020FD193EA0C0F03D14B0218BF7C
:100EF000084608D180EA010000F0004040F0FE40C2
:100F000040F40000704740F0FE4040F4400070475D
:100F10004FF0FF0C1CEAD0521EBF1CEAD15392EADC
:100F20000C0F93EA0C0F69D0A2EB030280EA010CCC
:100F300049024FEA402037D04FF0805343EA111165
:100F400043EA10130CF000408B4238BF5B0042F1C3
:100F50007D024FF4000C8B4224BF5B1A40EA0C0068
:100F6000B3EB510F24BFA3EB510340EA5C00B3EB9A
:100F7000910F24BFA3EB910340EA9C00B3EBD10F88
:100F800024BFA3EBD10340EADC001B0118BF5FEADA
:100F90001C1CE0D1FD2A3FF650AF8B4240EBC25003
:100FA00008BF20F0010070470CF0004C4CEA5020C4
:100FB0007F32C2BFD2F1FF0340EAC250704740F413
:100FC00000004FF00003013A37E792F0000F00F005
:100FD000004C02BF400010F4000F013AF9D040EA83
:100FE0000C0093F0000F01F0004C02BF490011F417
:100FF000000F013BF9D041EA0C0195E70CEAD1530F
:1010000092EA0C0F08D142027FF47DAF93EA0C0FF5
:101010007FF470AF084676E793EA0C0F04D14B02D9
:101020003FF44CAF08466EE730F0004C18BF31F08B
:10103000004CCAD130F000427FF45CAF31F0004385
:101040007FF43CAF5FE700BF42000ED2B2F1FE4F2B
:101050000BD34FF09E03B3EB126209D44FEA002387
:1010600043F0004323FA02F070474FF0000070474E
:1010700012F1610F01D1420202D14FF0FF307047EF
:101080004FF00000704700BF53B94AB9002908BFAC
:1010900000281CBF4FF0FF314FF0FF3000F00CB8BC
:1010A000ADF1080C6DE904CE0FF01CFEDDF804E094
:1010B000DDE9022304B07047704700BF844641EA6F
:1010C000000313F003036DD1403A41D351F8043BC0
:1010D00040F8043B51F8043B40F8043B51F8043B12
:1010E00040F8043B51F8043B40F8043B51F8043B02
:1010F00040F8043B51F8043B40F8043B51F8043BF2
:1011000040F8043B51F8043B40F8043B51F8043BE1
:1011100040F8043B51F8043B40F8043B51F8043BD1
:1011200040F8043B51F8043B40F8043B51F8043BC1
:1011300040F8043B51F8043B40F8043B51F8043BB1
:1011400040F8043B51F8043B40F8043B403ABDD220
:10115000303211D351F8043B40F8043B51F8043BC2
:1011600040F8043B51F8043B40F8043B51F8043B81
:1011700040F8043B103AEDD20C3205D351F8043B51
:1011800040F8043B043AF9D2043208D0D2071CBF1D
:1011900011F8013B00F8013B01D30B880380604646
:1011A000704700BF082A13D38B078DD010F00303BC
:1011B0008AD0C3F10403D21ADB071CBF11F8013B2C
:1011C00000F8013B80D331F8023B20F8023B7BE77B
:1011D000043AD9D3013A11F8013B00F8013BF9D2A6
:1011E0000B7803704B7843708B7883706046704740
:1011F00000000000000000000000000000000000EF
:1012000030B490F800F020F007016FF0000C10F0FF
:10121000070491F820F040F048804FF000046FF090
:101220000700D1E9002391F840F000F1080082FAAC
:101230004CF2A4FA8CF283FA4CF3A2FA8CF34BBB77
:10124000D1E9022382FA4CF200F10800A4FA8CF2F0
:1012500083FA4CF3A2FA8CF3E3B9D1E9042382FABE
:101260004CF200F10800A4FA8CF283FA4CF3A2FAD3
:101270008CF37BB9D1E9062301F1200182FA4CF20B
:1012800000F10800A4FA8CF283FA4CF3A2FA8CF372
:10129000002BC6D0002A04BF04301A4612BAB2FA94
:1012A00082F200EBD20030BC7047D1E9002304F099
:1012B0000305C4F100004FEAC50514F0040F91F8CE
:1012C00040F00CFA05F562EA05021CBF63EA05036B
:1012D00062464FF00004AAE7000000000000000092
:1012E00001F0FF01102A2BDB10F0070F08D010F8D7
:1012F000013B013A8B422DD010F0070F42B3F6D1DB
:10130000F0B441EA012141EA014122F007047FF0F3
:1013100000070023F0E80256083C85EA010586EA4A
:10132000010685FA47F5A3FA87F586FA47F6A5FA86
:1013300087F68EB9EED1F0BC01F0FF0102F0070292
:1013400032B110F8013B013A83EA010313B1F8D13D
:101350000020704701387047002D06BF354603381E
:10136000073815F0010F07D1013015F4807F02BF57
:10137000013015F4C03F0130F0BC0138704700BFA8
:101380004FF0FF3C06E000BF4FF0010C02E000BF51
:101390004FF0010C4DF804CD4FEA410C7FEA6C5C34
:1013A0004FEA430C18BF7FEA6C5C1BD001B050EAD7
:1013B000410C0CBF52EA430C91EA030F02BF90EAC2
:1013C000020F0020704710F1000F91EA030F58BF81
:1013D000994208BF90422CBFD8176FEAE37040F0E3
:1013E000010070474FEA410C7FEA6C5C02D150EA81
:1013F000013C07D14FEA430C7FEA6C5CD6D152EA3C
:10140000033CD3D05DF8040B704700BF8446104600
:1014100062468C461946634600E000BF01B5FFF7FF
:10142000B7FF002848BF10F1000F01BD4DF808EDCF
:10143000FFF7F4FF0CBF012000205DF808FB00BFA0
:101440004DF808EDFFF7EAFF34BF012000205DF8FA
:1014500008FB00BF4DF808EDFFF7E0FF94BF012047
:1014600000205DF808FB00BF4DF808EDFFF7CEFF48
:1014700094BF012000205DF808FB00BF4DF808ED87
:10148000FFF7C4FF34BF012000205DF808FB00BF58
:101490004FEA410C7FEA6C5C02D150EA013C0AD170
:1014A0004FEA430C7FEA6C5C02D152EA033C02D162
:1014B0004FF0000070474FF0010070470348044BA5
:1014C000834202D0034B03B118477047F40600244F
:1014D000F4060024000000000548064B1B1AD90F33
:1014E00001EBA301491002D0034B03B11847704729
:1014F000F4060024F40600240000000010B5064C99
:10150000237843B9FFF7DAFF044B13B10448AFF374
:1015100000800123237010BDF406002400000000A9
:10152000D0B3010808B5054B1BB105490548AFF319
:101530000080BDE80840FFF7CFBF00BF00000000FB
:10154000F8060024D0B3010800B58BB00023079340
:1015500008930993009301930293039304930593D3
:1015600006933348334A02604FF44022426083605E
:101570000122C26004210161037543758161027714
:10158000026243628362C3620363436380F838305C
:1015900003F018FD002838D10023079307A9244839
:1015A00003F012FE002833D1234B0093062301934E
:1015B0000023029340F2FF720392042204920593E7
:1015C0008DF8193069461A4803F092F918BB1B4B85
:1015D00000930C2301936946154803F089F9E8B993
:1015E000174B0093122301936946114803F080F9C9
:1015F000B8B9144B00931823019369460C4803F0C3
:1016000077F988B90BB05DF804FB01F075FDC3E70D
:1016100001F072FDC8E701F06FFDD8E701F06CFD45
:10162000DEE701F069FDE4E701F066FDEAE700BFEF
:1016300010070024002002400004002A0008302E79
:101640000040C03A0080F03E70B5BAB004460021B8
:1016500035913691379138913991C02204A80FF015
:1016600091FE22682E4B9A4201D03AB070BD4FF4E1
:1016700000220023CDE904230423069308230793C3
:1016800003230893022309930A93C0230B9304A80E
:1016900007F07AFD00283FD1224BD3F8382142F0E1
:1016A0002002C3F83821D3F8382102F02002019239
:1016B000019AD3F8402142F00402C3F84021D3F844
:1016C000402102F004020292029AD3F8402142F033
:1016D0000102C3F84021D3F8403103F00103039322
:1016E000039B0325359536950024379435AE314656
:1016F0000D4805F039FB0C23359336953794314668
:101700000A4805F031FB22462146122003F032FE42
:10171000122003F03FFEA8E701F0EEFCBCE700BF9B
:1017200000200240004402580008025800000258FD
:1017300038B5002402E0144B18800134032C22DC5D
:10174000124D284603F042FB0121284602F0E8FE34
:10175000284602F073FF80B2032CEED801A353F8A1
:1017600024F000BF37170008751700087B17000822
:1017700081170008064B1880DFE7064B1880DCE76E
:10178000054B1880D9E738BD7A07002410070024DC
:101790007807002476070024740700240000000066
:1017A00070B586B006460D4664230293012301936B
:1017B00004AA009271227021414806F0FBF89DF8BE
:1017C000103013F0080F61D0AC238DF810303323A4
:1017D0008DF8113000238DF8123064230093032319
:1017E00004AA7021364805F083FE502002F040FE26
:1017F000642302930124019404AB009323467122D5
:1018000070212F4806F0D6F8204602F031FE9DF9EF
:101810001030002BECDB64230093062304AA702114
:10182000274805F037FF9DF811309DF8124024013C
:1018300044EA03349DF8133044EA13141B0403F400
:1018400070239DF8142043EA02239DF815001843E5
:10185000FEF778FE00221B4BFEF7EEFE00221A4B2D
:10186000FEF7EAFE0022194BFEF72EFDFFF73EF9C8
:1018700030602046FEF766FE0FA3D3E90023FFF792
:1018800005F8FFF733F9286006B070BDBE238DF868
:10189000103008238DF8113000238DF812306423A6
:1018A0000093032304AA7021054805F021FE0A20B5
:1018B00002F0DEFD88E700BF7B14AE47E17AC4404A
:1018C000FC0D00240000B03E0000694000004940CB
:1018D00008B50022034B1988034B186805F05FFB1D
:1018E00008BD00BF8C0700249007002408B5012222
:1018F000034B1988034B186805F051FB08BD00BF66
:101900008C0700249007002408B50022034B198897
:10191000034B186805F043FB08BD00BF8407002493
:101920008807002408B50122034B1988034B186867
:1019300005F035FB08BD00BF84070024880700249C
:1019400010B582B08DF80700FFF7C2FFFFF7DCFF8C
:10195000642301220DF10701044800680AF09CF994
:101960000446FFF7C3FF204602B010BD94070024D1
:1019700070B582B00C4615468DF80700FFF7A8FF3A
:10198000FFF7C2FF0B4E642301220DF107013068FF
:101990000AF082F9FFF7C6FF4FF0FF332A462146CF
:1019A00030680AF079F90446FFF7A0FF204602B03C
:1019B00070BD00BF9407002438B504460D46FFF7FC
:1019C00087FFFFF7AFFF4FF0FF33AAB2214604486D
:1019D00000680AF061F90446FFF788FF204638BD29
:1019E0009407002408B52920FFF7AAFF0A2002F077
:1019F0003FFD08BD00B583B04FEA102C8DF804C040
:101A00008DF80500100A8DF806008DF807200A0AE7
:101A10008DF800208DF801101A0A8DF802208DF83B
:101A2000033004220DEB02012A20FFF7A1FF04225C
:101A300069462B20FFF79CFF03B05DF804FB000014
:101A40002DE9F84F00AF06460C46E8462C20FFF77C
:101A500077FF4FEA4409B9F1630F0DD82CB3FFF7B4
:101A600061FFFFF735FF310AE31D23F00703ADEBFC
:101A7000030D6D46002305E06424F0E7E9545A1C89
:101A8000AE5402339C42F9D8B9FBF4FA04FB1A9B1A
:101A9000A14518D20A231FFA8BF229460B48006889
:101AA0000AF0FAF8FFF722FFC546BD46BDE8F88FF9
:101AB0006423A2B22946054800680AF0EDF8013611
:101AC0005645F5D3E6E70026FAE700BF9407002461
:101AD00070B50446074D084E2B8832880021084611
:101AE000FFF788FF3388298803FB01F12046FFF7C1
:101AF000A7FF70BD000000240200002410B582B0D2
:101B000004463620FFF71CFF012002F0B1FC032C35
:101B100012D8DFE804F002131E2948238DF807309D
:101B2000174BF0221A80174B4FF4A0721A80012134
:101B30000DF10700FFF740FF02B010BD28238DF81C
:101B400007300F4B4FF4A0721A800E4BF0221A8010
:101B5000EDE788238DF80730094BF0221A80094BF6
:101B60004FF4A0721A80E2E7E8238DF80730044BA7
:101B70004FF4A0721A80034BF0221A80D7E700BFFF
:101B8000020000240000002470B582B004460D4617
:101B90000798BDF82010344E3460344C2560344C26
:101BA0002280344A1360BDF81820334B1A80334C1E
:101BB0002060334D2980012205F0F1F9FFF788FEFE
:101BC00000222988206805F0EAF9C82002F050FCBC
:101BD000FFF78CFEC82002F04BFC01222988206808
:101BE00005F0DDF955238DF80730FFF771FE64230A
:101BF00001220DF1070130680AF04EF8FFF776FE7A
:101C00000120FFF79DFE962002F032FC00F0F2F971
:101C100000F002FA00F024FA00F043FA00F010FAA3
:101C200000F032FA00F04AFA00F055FA00F060FADB
:101C300000F06CFA00F077FA00F082FA00F08DFA0A
:101C400000F09AFA00F0ACFA00F0B7FA00F0C2FA2D
:101C500000F0D6FA00F0EAFAFFF7C4FE0220FFF720
:101C60004DFF02B070BD00BF940700249007002410
:101C70008C070024880700248407002480070024A0
:101C80007C07002400B583B000238DF807300528B9
:101C90000ED8DFE800F00316212C374208238DF818
:101CA0000730234BF0221A80224B4FF4A0721A8087
:101CB00001220DF107013620FFF75AFE03B05DF84F
:101CC00004FB68238DF80730194B4FF4A0721A807B
:101CD000184BF0221A80EBE7C8238DF80730144B1D
:101CE000F0221A80134B4FF4A0721A80E0E7A82369
:101CF0008DF807300E4B4FF4A0721A800D4BF02276
:101D00001A80D5E728238DF80730094B4FF4A072CD
:101D10001A80084BF0221A80CAE788238DF8073012
:101D2000034BF0221A80034B4FF4A0721A80BFE7D6
:101D3000020000240000002438B514461D4600EBC4
:101D4000020C1FFA8CFC01EB030E1FFA8EFE0EF143
:101D5000FF3E0CF1FF3C1FFA8EF31FFA8CF2FFF7E7
:101D600049FE05FB04F1BDF81000FFF769FE38BD20
:101D700038B514461D4680B289B200EB020C1FFA3A
:101D80008CFC01EB030E1FFA8EFE0EF1FF3E0CF1F0
:101D9000FF3C1FFA8EF31FFA8CF2FFF72BFE05FBB8
:101DA00004F1BDF81000FFF74BFE38BD10B582B04E
:101DB0000B4614460246FFF71DFE230A8DF8043039
:101DC0008DF805402C20FFF7BBFD022101A8FFF78D
:101DD000F3FD02B010BD38B514461D4600EB020CF1
:101DE0001FFA8CFC01EB030E1FFA8EFE0EF1FF3E74
:101DF0000CF1FF3C1FFA8EF31FFA8CF2FFF7FAFD8D
:101E00002C20FFF79DFD05FB04F149000498FFF726
:101E1000D3FD38BD2DE9F04385B00F469046994675
:101E2000BDF830601F2801D92038C0B200230CE073
:101E300000EB40011F4A02EB4102D15C03F11002AA
:101E40006A4402F8081C01339BB2052BF0D9002527
:101E500029E004EB0801E8194A4689B280B2FFF78D
:101E6000A5FF0134A4B2072C1BD805F110036B4465
:101E700013F8080C204110F0010FF2D0012EE8D029
:101E800015FB06F014FB06F118FA81F117FA80F041
:101E9000CDF800903346324689B280B2FFF74CFF4E
:101EA000DFE70135ADB2052D01D80024DBE705B031
:101EB000BDE8F08390C101082DE9F04383B00646E8
:101EC0000D4690461F46BDF82840BDF82C900DE009
:101ED0000136CDF8049000943B4642462946FFF770
:101EE00099FF04EB440305EB43039DB2307838B10E
:101EF00004EB440105EB4101034B1B889942E7DDEC
:101F000003B0BDE8F08300BF020000242DE9F04FCC
:101F1000ADF5835D85B002AF3860884691461D46B9
:101F200041F29003FB18B3F800B0C7F804D000F0FA
:101F30001FFAC0B341F258042246002107F11000F5
:101F40000FF020FA4FEA450A0AF10703DB086A4658
:101F5000A2EBC3039D4602AE0122396841F2680339
:101F6000FB18181B0EF058FA014600BB00245C4514
:101F700030D207F10C035246314607F110000EF043
:101F800035FC0146B8B9FB68B3EB450F13D104EB40
:101F90000901009601232A4689B24046FFF71BFF3C
:101FA0000134A4B2E3E710480FF008F90AE00F4843
:101FB0000FF004F906E00E480FF000F907F11000E9
:101FC0000EF0DCFDD7F804D007F583570C37BD467B
:101FD000BDE8F08F07F110000EF0D0FD00F0FAF927
:101FE000D7F804D0F0E700BF80BA010898BA01081A
:101FF000B4BA010800B583B0064B93E80300009023
:102000008DF8041005226946CB20FFF7B1FC03B020
:102010005DF804FBE8B3010800B583B0074B9B688B
:10202000ADF804301B0C8DF80630032201A9CF2037
:10203000FFF79EFC03B05DF804FB00BFE8B30108A6
:1020400000B583B0054B019304220DEB0201ED2096
:10205000FFF78EFC03B05DF804FB00BF6403128140
:1020600000B583B0074BDB68ADF804301B0C8DF86E
:102070000630032201A9E820FFF77AFC03B05DF8DF
:1020800004FB00BFE8B3010800B583B020238DF83E
:102090000430012201A9F720FFF76AFC03B05DF8C4
:1020A00004FB00B583B00023ADF80430022201A97F
:1020B000EA20FFF75DFC03B05DF804FB00B583B0D8
:1020C00023238DF80430012201A9C020FFF750FC22
:1020D00003B05DF804FB00B583B010238DF8043025
:1020E000012201A9C120FFF743FC03B05DF804FB06
:1020F00000B583B042F63E03ADF80430022201A9D8
:10210000C520FFF735FC03B05DF804FB00B583B0D4
:1021100086238DF80430012201A9C720FFF728FC8F
:1021200003B05DF804FB00B583B048238DF804309C
:10213000012201A93620FFF71BFC03B05DF804FB68
:1021400000B583B055238DF80430012201A93A204F
:10215000FFF70EFC03B05DF804FB00B583B04FF44D
:10216000C053ADF80430022201A9B120FFF700FCF2
:1021700003B05DF804FB000000B583B0074B1B689B
:10218000ADF804301B0C8DF80630032201A9B620EF
:10219000FFF7EEFB03B05DF804FB00BFD0BA010807
:1021A00000B583B000238DF80430012201A9F2208C
:1021B000FFF7DEFB03B05DF804FB00B583B001223E
:1021C0008DF8042001A92620FFF7D2FB03B05DF8AB
:1021D00004FB000000B585B0084BEC460FCBACE823
:1021E00007002CF8023B1B0C8CF800300F226946CC
:1021F000E020FFF7BDFB05B05DF804FBD4BA010891
:1022000000B585B0EC46084B0FCBACE807002CF8C6
:10221000023B1B0C8CF800300F226946E120FFF7CF
:10222000A7FB05B05DF804FBF8B3010808B5112061
:10223000FFF786FB782002F01BF908BD08B50122E4
:102240004021024804F0ABFE08BD00BF000C02585C
:1022500008B500224021024804F0A1FE08BD00BFDD
:10226000000C025800B583B08DF804008DF80510FD
:10227000FFF7EEFF6423022201A9044809F00CFDD8
:10228000FFF7DCFF03B05DF804FB00BF800F002404
:1022900008B5012804D000210C20FFF7E3FF08BD9A
:1022A0000121F9E7072800D9704708B50130C0B20D
:1022B000FFF7D8FF08BD10B5002404E00021E0B20C
:1022C000FFF7F0FF0134072CF8DD0120FFF7E0FFF6
:1022D00010BD08B501460F2800D90F210A20FFF7CD
:1022E000C1FF08BD10B582B000248DF80740FFF78C
:1022F000AFFF642301220DF107010B4809F0CCFC6C
:10230000FFF79CFF2046FFF7C3FF21460920FFF798
:10231000A9FF07210B20FFF7A5FF0220FFF7D9FF38
:10232000FFF7C9FF02B010BD800F002408B50248B6
:1023300009F070FF08BD00BF0C11002408B5094B5F
:102340001A6801321A60084BA3FB02139B094FF471
:102350007A7101FB132303B108BD0821034804F07F
:1023600024FEF9E798070024D34D6210000C0258B0
:1023700030B5ADF5825D81B00122124901A80EF0A1
:102380001BF898B9104DAC46104C0FCCACE80F00C0
:102390000FCCACE80F002368ACF8003028460EF0F4
:1023A0000DFF01200DF5825D01B030BD0246064CE7
:1023B000074920460EF07CFF20460EF0FFFE00206D
:1023C000F0E700BF1C1300249C07002418BB010881
:1023D000E4BA010838B50022114910460DF0ECFFAF
:1023E00098B9104DAC46104C0FCCACE80F000FCC98
:1023F000ACE80F0094E803004CF8040BACF80010B4
:1024000028460EF0DBFE012038BD0246054C074988
:1024100020460EF04DFF20460EF0D0FE0020F3E7E0
:1024200040BD01089C07002454BE01081CBE0108E1
:1024300000B587B08DF817004FF0FF3302930123EA
:1024400001930DF11702009200227821024805F055
:10245000DDF907B05DF804FB500E002400B585B02F
:102460004FF0FF33029389B2019100900123402283
:102470007821034805F0CAF905B05DF804FB00BFF8
:10248000500E002408B530B900214FF48062034893
:102490000EF078FF08BDFF21F7E700BFA008002479
:1024A00010B5002412E0A4F15000C0B2FFF7C0FF45
:1024B0000020FFF7BDFF1020FFF7BAFF802105487D
:1024C00000EBC410FFF7CAFF0134E4B2072CEAD9CD
:1024D00010BD00BFA008002408B530B1054B012293
:1024E0005A71AF20FFF7A4FF08BD024B00225A71BA
:1024F000AE20F7E79808002410B504468120FFF7C6
:1025000097FF2046FFF794FF10BD000008B5642038
:1025100001F0AEFF0020FFF7DFFF2020FFF788FF6C
:102520000020FFF785FFB020FFF782FFC820FFF7EC
:102530007FFF0020FFF77CFF1020FFF779FF40208E
:10254000FFF776FFFF20FFF7D7FFA120FFF770FF0F
:10255000A620FFF76DFF3F20FFF76AFFA420FFF7DB
:1025600067FFD320FFF764FF0020FFF761FFD5204E
:10257000FFF75EFFF020FFF75BFFD920FFF758FF62
:102580002220FFF755FFDA20FFF752FF1220FFF756
:102590004FFFDB20FFF74CFF2020FFF749FF8D2086
:1025A000FFF746FF1420FFF743FF0120FFF794FFDA
:1025B0000020FFF767FFFFF773FF034B00221A802D
:1025C0005A8001221A7108BD980800243F2994BF3F
:1025D0000023012353EAD0131CD110B4012A0ED0DA
:1025E000CB0800EBC3100C4C225C01F00701012367
:1025F0008B40DB435BB21340235410BC7047CB08C5
:1026000000EBC310044C235C01F007018A40134324
:102610002354F2E7704700BFA0080024014B188044
:1026200059807047980800242DE9F04784B081460E
:1026300004A800E90E009DF83080A9F12003DBB268
:102640005E2B46D8039B83B1A9F120029E5C254BEB
:102650001B883344802B40DC224B5B889DF805A00F
:102660005344402B3BDC002522E09DF80460EEE75C
:102670001C4B1888598829442044B8FA88F252091A
:10268000C9B2C0B2FFF7A2FF0134A6420FD907FAC0
:1026900004F313F4004FEBD0124B188859882944E7
:1026A00020444246C9B2C0B2FFF790FFECE70135C3
:1026B000AA4508D9A9F1200303FB0A53029A32F86C
:1026C00013700024E1E7074B1A8816441E80484621
:1026D00000E0002004B0BDE8F0870020FAE7002009
:1026E000F8E700BF9808002430B587B0044606A874
:1026F00000E90E009DF8285000E00134207848B130
:10270000009506AB13E90E00FFF78EFF0346207815
:102710008342F2D007B030BD00B583B002AB03E90D
:102720000300094B01211970BDF80410074B186014
:102730009980074B1A700748036800225A6209F013
:1027400069FD03B05DF804FBA00C0024A40C002478
:10275000040000245811002408B51D4B99881868FE
:1027600004F016FC01280BD01A4B1B78052B24D043
:10277000184B06221A70164B00221A609A8008BD68
:10278000144B1B78042BFAD8DFE803F003070B0F78
:102790001300114B01221A70F1E7104B01221A703D
:1027A000EDE70F4B01221A70E9E70E4B01221A7078
:1027B000E5E70D4B01221A70E1E7054B998818688F
:1027C00004F0E6FB0028D3D1084B01221A70D6E7AB
:1027D000A40C002404000024B70C0024B60C002430
:1027E000B50C0024B40C0024B30C0024B20C00245B
:1027F0001B4B1B782BB11B4B01221A70184B00226C
:102800001A70194B1B782BB1184B01221A70164BFA
:1028100000221A70164B1B782BB1164B01221A702E
:10282000134B00221A70144B1B782BB1134B01224F
:102830001A70114B00221A70114B1B782BB1114BDF
:1028400001221A700E4B00221A700F4B1B782BB10D
:102850000E4B01221A700C4B00221A70704700BFF9
:10286000B70C0024B10C0024B60C0024B00C0024DA
:10287000B50C0024AF0C0024B40C0024AE0C0024D2
:10288000B30C0024AD0C0024B20C0024AC0C0024CA
:102890000023064A1370064A1370064A1370064A4C
:1028A0001370064A1370064A13707047B10C002467
:1028B000B00C0024AF0C0024AE0C0024AD0C00249E
:1028C000AC0C0024254B1B78002B45D100B58BB0F8
:1028D000013804280DD8DFE800F01B03270F330070
:1028E0001F4B93E80300CDE900011E4B0222FFF7C6
:1028F00013FF0BB05DF804FB0DF1080C1A4B93E8C5
:1029000003008CE80300194B0422FFF705FFF0E7F2
:102910000DF1100C164B93E803008CE80300154BE7
:102920000122FFF7F9FEE4E70DF1180C124B93E8D2
:1029300003008CE80300114B0322FFF7EDFED8E7FC
:102940000DF1200C0E4B93E803008CE803000D4BB7
:102950000522FFF7E1FECCE7704700BFA00C002482
:1029600008B40108B50C002410B40108B30C00240D
:1029700018B40108B60C002420B40108B40C0024DB
:1029800028B40108B20C002408B5B0F5005F1BD0D4
:1029900009D9B0F5804F0FD0B0F5004F02D1022019
:1029A000FFF790FF08BD20280AD0B0F5806FF9D15D
:1029B0000320FFF787FFF5E70420FFF783FFF1E728
:1029C0000120FFF77FFFEDE70520FFF77BFFE9E739
:1029D00010B582B020210E4804F0DAFA044601282E
:1029E00003D00C4B1C7002B010BD0A4B1B78002B9F
:1029F000F7D1094B1B78002BF3D1084B93E8030068
:102A0000CDE90001064B0022FFF786FEE9E700BF93
:102A100000100258B80C0024A00C002430B40108A7
:102A2000B10C0024044B4FF0000C83F800C0597027
:102A30009870DA70704700BF580D00240000000045
:102A40002DE9F04105462D2800DD2D251A4B1A7879
:102A50001A4B1A70012425E0C5F15A00FEF750F90F
:102A6000FDF792FD12A3D3E90023FDF7E5FD002257
:102A7000134BFDF70BFFFEF739F80F4B13F80480EB
:102A8000FDF782FD17F04AFB06460F464046FDF76C
:102A900069FD32463B46FDF7F9FEFEF707F8074BA6
:102AA00018550134032CD7DDBDE8F081AFF3008069
:102AB000F1D4C853FB210940580D0024540D0024C3
:102AC0000080664000000000F8B5334BDF68BBB201
:102AD000324A138053B1324B5A789E78360246EA16
:102AE0000246DB781E431725002415E02D480EF022
:102AF00065FB43E0B8B20130FEF702F9FDF744FD93
:102B000021A3D3E90023FDF797FDFDF7CFFF264B67
:102B100023F814000134013D002D14DB0123AB40E8
:102B20001E42E7D0B8B20130FEF7EAF8FDF72CFDFF
:102B300017A3D3E90023FDF77FFDFDF7B7FF1A4B7D
:102B400023F81400E6E7002305E0174A002122F8E5
:102B5000141001340133312BF7DD012001F088FC22
:102B60004A23114A00210C4809F0BCFE38B90F4B2A
:102B70001B78002BFBD00D4B00221A70F8BD00F023
:102B8000BBFAF4E7AFF30080555555555555D53F81
:102B9000555555555555E53FA4110024BA0C002450
:102BA000540D00247CBE0108C00C0024BC0C002481
:102BB00008B5002103480AF023F8034B01221A70DC
:102BC00008BD00BFA4110024BC0C002400B583B0D4
:102BD0000B4BD3F8382142F00202C3F83821D3F866
:102BE000383103F002030193019B00221146462075
:102BF00002F0C0FB462002F0CDFB03B05DF804FB01
:102C00000044025808B51448144B03600023836045
:102C1000C360037443748374102242610122826191
:102C2000C261026242628262C26202634363836380
:102C3000C3630364042242648364C264036542651F
:102C40008365C36503664366826603F043FF00B98C
:102C500008BD00F051FAFBE75C0D002400A0004025
:102C600010B5B8B0044600213391349135913691B6
:102C70003791C02202A80EF085FB22681D4B9A42B4
:102C800001D038B010BD4FF400420023CDE902233B
:102C90004FF08053209302A806F076FA38BB164B0B
:102CA000D3F84C2142F48072C3F84C21D3F84C2164
:102CB00002F480720092009AD3F8402142F002029E
:102CC000C3F84021D3F8403103F002030193019B84
:102CD0004FF4407333930223349300233593369398
:102CE0000923379333A9054804F03EF8C9E700F0FB
:102CF00003FAD4E700A00040004402580004025840
:102D00002DE9F0478CB007AD00240794089409948E
:102D10000A940B94544BD3F8402142F01002C3F8AC
:102D20004021D3F8402102F010020192019AD3F819
:102D3000402142F00402C3F84021D3F8402102F0C0
:102D400004020292029AD3F8402142F08002C3F8B2
:102D50004021D3F8402102F080020392039AD3F875
:102D6000402142F00102C3F84021D3F8402102F093
:102D700001020492049AD3F8402142F00202C3F8FF
:102D80004021D3F8402102F002020592059AD3F8BF
:102D9000402142F00802C3F84021D3F8403103F04B
:102DA00008030693069B314F22464FF4E7613846ED
:102DB00004F0F5F801224021384604F0F0F84FF015
:102DC0002009CDF81C90089402260996DFF8A0A0EF
:102DD0002946504603F0C8FF4FF4005307934FF4C1
:102DE0000413089309962946224803F0BDFF4FF4C7
:102DF000044307934FF48818CDF82080099629469C
:102E0000504603F0B1FF4FF4EF630793012308939B
:102E100009940A942946384603F0A6FF4FF48043EC
:102E20000793CDF8208009962946384603F09CFF89
:102E3000CDF81C90CDF82080099629460E4803F065
:102E400093FF22462146172002F094FA172002F041
:102E5000A1FA22462146282002F08CFA282002F00E
:102E600099FA0CB0BDE8F08700440258000C0258F3
:102E700000100258000802580004025808B5124811
:102E8000124B0360124B4360002383600122C26037
:102E9000036143618361C361036204F0C5FA50B901
:102EA0000021094804F05EFE40B90021064804F004
:102EB00086FE30B908BD00F01FF9F1E700F01CF9FB
:102EC000F3E700F019F9F5E7500E00240054004034
:102ED000BB7C700008B51248124B0360124B436074
:102EE000002383600122C260036143618361C36187
:102EF000036204F099FA50B90021094804F032FE47
:102F000040B90021064804F05AFE30B908BD00F06F
:102F1000F3F8F1E700F0F0F8F3E700F0EDF8F5E78B
:102F2000FC0D002400580040BB7C700010B5BAB006
:102F30000446002135913691379138913991C0225C
:102F400004A80EF01FFA2368364A934204D0364A8A
:102F5000934233D03AB010BD08220023CDE90423B8
:102F600004A806F011F930BB304CD4F8403143F0DE
:102F70000203C4F84031D4F8403103F00203009357
:102F8000009BC02335931223369300233793389345
:102F90000423399335A9264803F0E6FED4F84831D6
:102FA00043F40013C4F84831D4F8483103F4001353
:102FB0000193019BCEE700F09FF8D5E7082200239C
:102FC000CDE9042304A806F0DFF838BB174CD4F889
:102FD000403143F00203C4F84031D4F8403103F0EB
:102FE00002030293029B4FF44063359312233693FE
:102FF0000023379338930423399335A90C4803F001
:10300000B3FED4F8483143F48003C4F84831D4F80F
:10301000483103F480030393039B9BE700F06CF8B3
:10302000D4E700BF0054004000580040004402585C
:103030000004025830B585B0002400940194029435
:10304000039402F0BFF901238DF800308DF80140A0
:1030500001941F228DF8082087228DF809208DF811
:103060000A408DF80B408DF80C308DF80D308DF83E
:103070000E408DF80F40684602F0C2F9042002F0BD
:10308000AFF905B030BD000000B583B001904FF638
:10309000FF73012201A903480AF030FB019803B035
:1030A0005DF804FBF011002408B5FFF76DFC08BDC6
:1030B00038B5044602680C4B9A4204D022680B4B88
:1030C0009A420ED038BDFFF747FB094D284609F05C
:1030D0008DF8084B00221A702B686FF001021A61FC
:1030E000ECE7FFF72BF9EDE700100040001400407B
:1030F00058110024A00C002472B6FEE700B59DB064
:103100004C22002109A80EF03DF92022002101A83F
:103110000EF038F9244B4FF0FF32C3F8B0200220F4
:1031200005F02EF900230093204B9A6922F44042C7
:103130009A619B6903F440430093009B1B4B9B697E
:1031400013F4005FFAD00223099301220C9240226B
:103150000D921293002213920421149108211591CB
:1031600016930321179118930C2319931A921B920B
:1031700009A805F02FF990B93F230193002302938A
:103180000393049340220592069207930893022129
:1031900001A805F061FD20B91DB05DF804FBFFF743
:1031A000ABFFFFF7A9FF00BF0044025800480258D8
:1031B0002DE9F04391B0FFF73DFF01F019F9FFF75A
:1031C0009DFFFFF79DFDFFF701FDFEF7BDF9FFF73E
:1031D00019FDFFF753FEFFF77DFE00F0C1FF00F081
:1031E000F5FF00F01DFA00F005FB00F089FB00F090
:1031F000B3FB00F039FF00F0DDFD0AF0D5FF00F071
:1032000023FEFFF76FF8FFF756F8C04B93E8030073
:1032100010AB03E90300002408E004F140036B4411
:1032200013F8081CE0B2FFF73DF80134072CF4DD79
:103230000220FFF74EF8FFF769F90120FFF722F9A6
:1032400000211920FFF7EAF9B14B002600960ECBBA
:10325000B048FFF749FAFFF723F9AF494FF400737D
:10326000029301914FF4806300930B464FF48072F8
:10327000AA48FEF789FCFEF7B5FB0420FEF702FD25
:103280004FF6FF70FEF724FC4FF6FF730193032304
:103290000093334632221146A148FEF70DFE4F241B
:1032A0000094642378221E219E48FEF72FFE00948E
:1032B00064237822B4219C48FEF728FE2821502060
:1032C000FFF7ACF931E00134072C2DDC06F14003A7
:1032D0006B4413F8082CC4F107031A4112F0010FD4
:1032E000F1D004F128077F00FFB206F114056D004C
:1032F000EDB2002229463846FFF768F907F10108C8
:103300005FFA88F8002229464046FFF75FF9013549
:10331000EDB2002229463846FFF758F90022294627
:103320004046FFF753F9CEE70136072E01DC0024B3
:10333000CAE7FFF7B5F8FEF7F9FFA2E07B480DF00A
:10334000AFFF4FF6FF74009428234FF4A0720021C2
:103350000846FEF70DFD01940323009300231A464F
:1033600082217348FEF7A8FDFEF7E2F9714B188839
:10337000FDF7F8F80022704BFDF75EF906460F46A0
:103380006E4B1888FDF7EEF800226B4BFDF754F9F1
:10339000804689466A4B1888FDF7E4F80022664BA0
:1033A000FDF74AF9FDF75AFB054640464946FDF749
:1033B00055FB044630463946FDF750FB2A46214668
:1033C000FFF730FB5F4B1888FDF7CCF800225E4B0F
:1033D000FDF732F9FDF742FBFFF732FBFFF774FB15
:1033E000012001F045F801F03DF8584B1B68C01A68
:1033F000B0F57A7F43D300230493059305A904A86D
:10340000FEF7CEF90498FDF7BFF802460B4606AF6B
:103410004F4938460DF04CFF0598FDF7B5F80246C8
:103420000B460AAE4B4930460DF042FF0120FFF734
:1034300029F800211920FFF7F1F8354C00250095F7
:1034400094E80E003348FFF74FF914210A20FFF7E4
:10345000E5F8009594E80E003846FFF745F91E217F
:103460000A20FFF7DBF8009594E80E003046FFF7DE
:103470003BF9FFF715F800F0F5FF344B1860FFF744
:1034800007FAFFF7A5FAFFF7B3F9334B1B78012BC7
:103490003FF454AF314B1B78012B1FD0304B1B78BE
:1034A000012B6BD02F4B1B78012B7ED02E4B1B7822
:1034B000012B00F091802D4B1B78012B7FF454AF32
:1034C0002B480DF0EDFE4FF6FF73009328234FF4C9
:1034D000A07200210846FEF74BFC45E725480DF099
:1034E000DFFE4FF6FF74009428234FF4A0720021F2
:1034F0000846FEF73DFC01940323009300231A467F
:1035000082211D48FEF7D8FC2EE700BFBCBF010892
:1035100084B401089CBE0108000C02580810002465
:10352000ACBE0108BCBE0108D0BE0108DCBE01086B
:10353000F4BE01087A0700240000703F78070024D9
:1035400076070024740700240080463FA40E002460
:103550009CBF0108ACBF0108B10C0024B00C0024D2
:10356000AF0C0024AE0C0024AD0C0024AC0C0024E5
:1035700080BF0108FCBE010818BF010822480DF0F9
:103580008FFE4FF6FF74009428234FF4A0720021A1
:103590000846FEF7EDFB01940323009300231A462F
:1035A00082211A48FEF788FCDEE619480DF078FE05
:1035B0004FF6FF74009428234FF4A07200210846B0
:1035C000FEF7D6FB01940323009300231A468221C1
:1035D0001048FEF771FCC7E60F480DF061FE4FF68C
:1035E000FF74009428234FF4A07200210846FEF7D0
:1035F000BFFB01940323009300231A46822107484E
:10360000FEF75AFCB0E600BF20BF010838BF010832
:103610003CBF010854BF01085CBF010878BF010826
:1036200000B587B0002300930193029303930493A2
:1036300005931848184A0260012242608360C36003
:103640001821016142618361C361036242624FF0EC
:1036500080428262C3620363082242638363C3635E
:1036600004F07CFB78B90123009302934FF001131F
:10367000039341F288326946064804F0F3FB28B907
:1036800007B05DF804FBFFF737FDECE7FFF734FD0B
:10369000F6E700BFA80E0024005000522DE9F043C9
:1036A000BDB0044600213791389139913A913B9150
:1036B000C02206A80DF066FE2268494B9A4202D04D
:1036C0003DB0BDE8F0834FF000720023CDE9062342
:1036D00006A805F059FD00287ED1424BD3F83421CD
:1036E00042F40012C3F83421D3F8342102F400125A
:1036F0000192019AD3F8342142F48042C3F8342174
:10370000D3F8342102F480420292029AD3F8402185
:1037100042F00102C3F84021D3F8402102F0010237
:103720000392039AD3F8402142F00202C3F84021E9
:10373000D3F8402102F002020492049AD3F8402107
:1037400042F01002C3F84021D3F8403103F01003D7
:103750000593059B40233793022738970026399617
:1037600003243A9406233B9337ADDFF87C80294647
:10377000404603F0F9FA80233793389739963A9404
:103780000A233B932946404603F0EEFA37943897D4
:1037900039963A944FF00B08CDF8EC80DFF84C9056
:1037A0002946484603F0E0FA0423379338973996C0
:1037B0003A9409233B932946484603F0D5FA4FF43F
:1037C00000633793389739963A94CDF8EC802946C0
:1037D000074803F0C9FA73E7FFF78EFC7DE700BFE7
:1037E00000500052004402580000025800040258E1
:1037F00000100258054B064A1A6000225A609A606F
:10380000DA601A6106225A61704700BF040F002473
:10381000007000522DE9F041BAB004460021359104
:103820003691379138913991C02204A80DF0AAFD44
:1038300022682F4B9A4202D03AB0BDE8F0814FF493
:1038400080320023CDE9042304A805F09DFC002864
:103850004AD1284BD3F8342142F48032C3F83421C2
:10386000D3F8342102F480320192019AD3F8402136
:1038700042F00402C3F84021D3F8402102F00402D0
:103880000292029AD3F8402142F00802C3F8402184
:10389000D3F8403103F008030393039B4FF488539C
:1038A00035934FF00208CDF8D880002437940327D1
:1038B00038970C26399635AD29460F4803F054FA4F
:1038C00004233593CDF8D880379438973996294614
:1038D0000A4803F049FA22462146312001F04AFD08
:1038E000312001F057FDA7E7FFF706FCB1E700BF65
:1038F000007000520044025800080258000C0258A0
:1039000008B51348134B03604FF480034360002352
:1039100083600722C260036143614FF0806282616D
:10392000C361036243628362C3624FF080424263B9
:103930008363C363036443648364C364036543654F
:10394000836508F0E1F800B908BDFFF7D5FBFBE798
:10395000081000240030014008B51348134B0360E1
:103960004FF480034360002383600722C260036139
:1039700043614FF000528261C2610362436283621D
:10398000C3624FF0804242638363C3630364436452
:103990008364C36403654365836508F0B5F800B9C3
:1039A00008BDFFF7A9FBFBE7800F002400340140AE
:1039B000F0B5BDB0044600213791389139913A9164
:1039C0003B91C02206A80DF0DDFC23684E4A9342CD
:1039D00004D04E4A934262D03DB0F0BD4FF48052C5
:1039E0000023CDE9062306A805F0CEFB002853D11D
:1039F000474BD3F8502142F48052C3F85021D3F8FA
:103A0000502102F480520092009AD3F8402142F0F3
:103A10000102C3F84021D3F8402102F001020192D3
:103A2000019AD3F8402142F00802C3F84021D3F8AC
:103A3000402102F008020292029AD3F8402142F09B
:103A40000202C3F84021D3F8403103F0020303938C
:103A5000039B2023379302273897002439943A9404
:103A600005263B9637AD29462A4803F07DF9802389
:103A70003793389739943A943B962946264803F071
:103A800073F910233793389739943A943B96294623
:103A9000224803F069F99FE7FFF72EFBA8E74FF4F0
:103AA00000520023CDE9062306A805F06DFB38BBC4
:103AB000174BD3F8502142F40052C3F85021D3F8E9
:103AC000502102F400520492049AD3F8402142F0AB
:103AD0001002C3F84021D3F8403103F010030593DE
:103AE000059B47F210033793022338930023399341
:103AF0003A9305233B9337A9094803F035F96BE75F
:103B0000FFF7FAFAD4E700BF00300140003401406B
:103B10000044025800000258000C025800040258E9
:103B20000010025882B0074BD3F8542142F0020231
:103B3000C3F85421D3F8543103F002030193019BDD
:103B400002B0704700440258FEE7FEE7FEE7FEE7DA
:103B5000FEE770477047704708B500F077FC08BD76
:103B600008B5024800F070FD08BD00BF1007002432
:103B700008B5202003F022FA08BD000008B502486D
:103B800008F0EBFB08BD00BFA411002408B50248F3
:103B900008F0E3FB08BD00BFA411002408B50248EB
:103BA00008F0DBFB08BD00BFA411002408B50248E3
:103BB00008F0D3FB08BD00BFA411002408B54FF4E2
:103BC000806003F0FBF94FF4005003F0F7F94FF475
:103BD000804003F0F3F94FF4004003F0EFF908BD23
:103BE00008B5024807F0EAFD08BD00BF040F002435
:103BF00008B5024808F0B1FB08BD00BF5811002409
:103C000008B5024808F0A9FB08BD00BF0C1100244C
:103C100008B5024802F0BAFA08BD00BF94100024AB
:103C20000120704708B50DF04FFC162303604FF0DC
:103C3000FF3008BD08B54FF0FF31FFF7F3FFFEE797
:103C400070B50C461646002506E0AFF3008021460D
:103C500001F8010B01350C46B542F6DB304670BD6C
:103C600070B50C461646002504E014F8010BFFF76A
:103C70000BFA0135B542F8DB304670BD4FF0FF302E
:103C800070474FF400534B6000207047012070478D
:103C90000020704710B503460C4A0D490D480068D6
:103CA00040B10C4800680344521A934206D8094AAE
:103CB000136010BD0748084C0460F2E70DF004FCE7
:103CC0000C2303604FF0FF30F3E700BF0000102427
:103CD000000400009010002470160024274B1B687D
:103CE00003F00F03022B06D8244A136823F00F03B6
:103CF00043F003031360224B1A6842F001021A607A
:103D000000221A6119681F4A0A401A601B4B1B687F
:103D100013F00C0F06D0194A136823F00F0343F079
:103D200003031360164B00229A61DA611A62164986
:103D300099621649D962164919635A639963DA631D
:103D400019645A64196821F4802119601A66D3F83D
:103D5000343113F4805F10D1094BD3F8342142F48D
:103D60008052C3F834210B4A43F2D2011160D3F8D8
:103D7000342122F48052C3F83421704700200052CD
:103D8000004402587FEDF6EA000202020000FF0143
:103D90008002010100400052054AD36843F002034B
:103DA000D360034B5B6813F4005FFAD0704700BF29
:103DB0000048025810B584B0002301930293039386
:103DC0001C4B9C69C4F3022405F0B2F805F0B0F86E
:103DD00044BB012303FB00F0FCF78EFF1649FCF700
:103DE000E3FFFDF731F9154AA2FB0032D20B013295
:103DF000B0FBF2F3013B12481249016092B24260FB
:103E0000002282609BB2C360826108F015FC58B941
:103E100000230193039301A9094808F089FF30B9F1
:103E200004B010BD0223D5E7FFF766F9F0E7FFF70E
:103E300063F9F5E700440258CDCC4C3D0180008089
:103E4000581100240010004010B584B000230193E5
:103E5000029303931A4BDC69C4F3821405F068F8EB
:103E600034BB012303FB00F0164AA2FB0032920987
:103E7000154BA3FB00135B0E0133B2FBF3F2013AC7
:103E8000013B9BB2114812490160436000218160EF
:103E900092B2C260816108F0CFFB58B90023019350
:103EA000039301A9094808F043FF30B904B010BDDD
:103EB0000223D7E7FFF720F9F0E7FFF71DF9F5E751
:103EC00000440258D34D6210ABF112830C11002450
:103ED0000014004002682A4B9A4200D0704710B587
:103EE00082B00446274BD3F8502142F00102C3F8B8
:103EF0005021D3F8503103F001030193019B224874
:103F0000224B03600B234360402383600023C36084
:103F10004FF4806202614FF4006242614FF400523C
:103F20008261C3610362436201F0C0FC20BB164B97
:103F300063629C6300221146182001F01BFA1820CE
:103F400001F028FA00221146192001F013FA192075
:103F500001F020FA002211461A2001F00BFA1A2073
:103F600001F018FA002211461B2001F003FA1B2071
:103F700001F010FA02B010BDFFF7BEF8D7E700BF9E
:103F8000000001400044025894100024B80402408C
:103F900000B583B003681A4A934205D0194A934288
:103FA00018D003B05DF804FB174BD3F8482142F05A
:103FB0001002C3F84821D3F8483103F010030093EE
:103FC000009B00221146362001F0D4F9362001F082
:103FD000E1F9E6E70C4BD3F8482142F02002C3F8A0
:103FE0004821D3F8483103F020030193019B0022BC
:103FF0001146372001F0BEF9372001F0CBF9D0E7A8
:1040000000100040001400400044025800B587B082
:1040100000230193029303930493059302680F4BCB
:104020009A4202D007B05DF804FB0D4BD3F8402153
:1040300042F01002C3F84021D3F8403103F01003DE
:104040000093009B4FF4007301930223029301231A
:10405000059301A9034802F087FEE3E70000014051
:10406000004402580010025810B598B00021159174
:10407000169117910E910F91109111911291139128
:104080001491342201A80DF07DF9314BDC69C4F3A1
:10409000022404F05FFF04F05DFF002C49D10123EE
:1040A00000FB03F31B0A2B4AA2FB03231B09013B62
:1040B00029482A4A02600022426082609BB2C360A3
:1040C00002614261826108F0E7FA002833D10023DF
:1040D00015931693179315A91F4808F029FE002879
:1040E0002CD160230E9300220F9210921192129203
:1040F000139214920EA9184808F048FB08BB00233D
:10410000019302930393049305934FF40052069294
:10411000079309934FF000720A920B930D9301A934
:104120000D4808F055FE78B90B48FFF76FFF18B03F
:1041300010BD0223B4E7FEF7DFFFC8E7FEF7DCFFA0
:10414000CFE7FEF7D9FFDAE7FEF7D6FFECE700BFCF
:1041500000440258598B4F01A41100240000014073
:1041600008B51748174B0360174B43600023836063
:10417000C36003610C224261836103624362836214
:10418000436609F088FB70B900210D4809F0FBFB7C
:1041900060B900210A4809F01BFC50B9084809F031
:1041A000D3FB48B908BDFEF7A7FFEDE7FEF7A4FF74
:1041B000EFE7FEF7A1FFF1E7FEF79EFFF2E700BF92
:1041C00084120024000C00582433030008B5194859
:1041D000194B03604FF41653436000238360C360A0
:1041E00003610C2242618361C3610362436208235D
:1041F00083624FF40043836309F04DFB70B90021E3
:104200000C4809F0C0FB60B900210A4809F0E0FB46
:1042100050B9084809F098FB48B908BDFEF76CFF93
:10422000EDE7FEF769FFEFE7FEF766FFF1E7FEF760
:1042300063FFF2E7F01100240078004010B5BAB037
:104240000446002135913691379138913991C02239
:1042500004A80DF097F82368364A934204D0364AF2
:10426000934234D03AB010BD04220023CDE9042398
:1042700004A804F089FF38BB304BD3F8542142F036
:104280000802C3F85421D3F8542102F00802009226
:10429000009AD3F8402142F00102C3F84021D3F83C
:1042A000403103F001030193019B4FF4C063359348
:1042B000022336930023379338930323399335A988
:1042C0001F4802F051FDCDE7FEF716FFD4E70222AA
:1042D0000023CDE9042304A804F056FF38BB174B94
:1042E000D3F8482142F08042C3F84821D3F848214E
:1042F00002F080420292029AD3F8402142F010026A
:10430000C3F84021D3F8403103F010030393039B1B
:104310004FF4C073359302233693002337933893B9
:104320000723399335A9074802F01EFD9AE7FEF7E7
:10433000E3FED4E7000C0058007800400044025827
:104340000000025800100258DFF838D0FFF724FDB3
:10435000FFF7C4FC0C480D490D4A002302E0D45875
:10436000C4500433C4188C42F9D30A4A0A4C0023BF
:1043700001E013600432A242FBD30DF0ABF8FEF76C
:1043800017FF70470000102400000024F4060024EA
:10439000B4CC0108F40600246C160024FEE70000EB
:1043A000104B1B780BB90120704710B504464FF431
:1043B0007A70B0FBF3F30C4A1068B0FBF3F000F036
:1043C000EDFF68B90F2C01D901200AE00022214637
:1043D0004FF0FF3000F0CEFF044B1C60002000E0E7
:1043E000012010BD100000240C0000241400002443
:1043F00010B5032000F0ACFF04F01CFB0F498B69E3
:10440000C3F303230E4AD35C03F01F03D8408B6928
:1044100003F00F03D35C03F01F0320FA03F3094AF0
:104420001360094B18600020FFF7BAFF10B1012498
:10443000204610BD0446FFF775FBF9E7004402581B
:10444000D0C30108080000240C000024034B1B7893
:10445000034A11680B441360704700BF100000242A
:1044600018130024014B1868704700BF181300246C
:1044700038B50446FFF7F6FF0546B4F1FF3F02D01A
:10448000044B1B781C44FFF7EDFF401BA042FAD3FE
:1044900038BD00BF1000002410B430300B0A9B0060
:1044A00003F00C03C45801F01F014FF01F0C0CFA6D
:1044B00001FC24EA0C0CC2F384628A404CEA02023A
:1044C000C25010BC704710B414304B0E9B0003F068
:1044D0000403C458C1F304514FF0070C0CFA01FC5B
:1044E00024EA0C0C8A404CEA0202C25010BC70470D
:1044F000C1F313033BB9C1F3846101228A40C3694C
:104500001343C361704791FAA1F131B1B1FA81F15E
:1045100001F01F0101228A40F1E72021F8E70000A5
:104520002DE9F04104460E46424B9F6807F01F07F5
:104530000569082D0DD0092F30D840F22123FB400A
:1045400013F0010F2AD00368DB6813F0010F1FD1AD
:104550000425FFF787FF804623681A682A422AD17C
:10456000B6F1FF3FF8D0FFF77DFFA0EB0800B042A7
:1045700001D8002EF0D123681B682B42ECD1636D6B
:1045800043F004036365002384F8503003204CE0BB
:10459000436D43F020034365012046E0254B9B68B3
:1045A00013F4404F01D10425D3E7636D43F020039A
:1045B0006365012039E0626D42F400726265DA6879
:1045C00012F4406F11D1627D7AB91A6812F0080FA7
:1045D0000BD0626D22F480726265626D12F4805FAE
:1045E00003D1626D42F001026265134A934214D016
:1045F0001A46934207D0092F12D840F22121F940E0
:1046000011F0010F0CD0DA68082D0BD012F4804F96
:104610000DD10C221A60002007E0A2F58072E8E7B5
:10462000D268F1E708221A600020BDE8F08100207E
:10463000FBE700BF00230240002102400368186C22
:104640007047704770477047F8B5044603681F68A5
:104650005D689A4B9E6806F01F0617F0020F10D097
:1046600015F0020F0DD0436D13F0100F03D1436D01
:1046700043F400634365204600F0A4FD2368022252
:104680001A6017F0040F02D015F0040F05D117F0CF
:10469000080F4DD015F0080F4AD0636D13F0100FBE
:1046A00003D1636D43F4007363652368DA6812F421
:1046B000406F37D1824A934227D01A46934207D09F
:1046C000092E25D840F22121F14011F0010F1FD011
:1046D000DA6812F4005F25D11A6812F0080F21D0B1
:1046E0009A6812F0040F15D15A6822F00C025A6031
:1046F000636D23F480736365636D13F4805F11D180
:10470000636D43F0010363650CE0A2F58072D5E7A9
:10471000D268DEE7636D43F010036365A36D43F079
:104720000103A3652046FFF78CFF23680C221A6063
:1047300017F0200F02D015F0200F05D117F0400F11
:1047400063D015F0400F60D0636D13F0100F03D1EC
:10475000636D43F4005363652368DA6C12F4C07F21
:1047600019D10121DA6812F4406F16D10120544AA0
:10477000934214D01A46934214D0062E14BF4FF021
:10478000000C4FF0010C6EB1BCF1000F0AD1072EE6
:1047900008D0D26807E00021E4E70020E7E7A2F5AF
:1047A0008072E8E7DA6851B312F0007F03D030B3CB
:1047B00012F4005F23D1196811F0400F1FD012F4DA
:1047C000001F1CD19A6812F0080F10D15A6822F00D
:1047D00060025A60636D23F480536365636D13F464
:1047E000807F0CD1636D43F00103636507E0636D67
:1047F00043F010036365A36D43F00103A3652046F6
:1048000000F0DCFC236860221A6017F0800F02D0F1
:1048100015F0800F2FD117F4807F02D015F4807F20
:1048200034D117F4007F02D015F4007F3AD117F08D
:10483000100F19D015F0100F16D0236B33B1002EC6
:1048400040D01E4B9B6813F4404F0AD0636D43F475
:1048500080636365A36D43F00203A3652046FFF701
:10486000F2FE236810221A6017F4806F02D015F44C
:10487000806F2DD1F8BD636D43F4803363652046AE
:10488000FFF7E0FE236880221A60C4E7636D43F4FB
:1048900000336365204600F093FC23684FF4807278
:1048A0001A60BEE7636D43F480236365204600F021
:1048B00088FC23684FF400721A60B8E700230240B6
:1048C000002102402368DB6813F0030FC9D0BDE765
:1048D000636D43F480436365A36D43F00803A365F0
:1048E00023684FF480621A60204600F068FCC1E73C
:1048F000F0B583B00023019390F85030012B00F005
:10490000FD8104460D46012380F85030026893680B
:1049100013F0040F09D0436D43F0200343650120D9
:10492000002384F8503003B0F0BD0B68002B0ADB85
:10493000C3F3130100293AD1C3F3846301219940E1
:10494000D3690B43D3612A6869682068FFF7A4FD27
:104950002068866816F0040600D00126836813F0EC
:10496000080F00D17EB32068816811F0010140F08A
:10497000C1812B68EE68D0F8C020C3F3130C22EA83
:104980000C0206F0180C9B4E26FA0CF63340C3F3CB
:1049900013031343C0F8C030EA68974B9A4200F003
:1049A0008F802B68002BC0F206810020B8E793FAB5
:1049B000A3F333B1B3FA83F303F01F03012199404A
:1049C000BEE72023F8E7AA682968FFF77CFD236883
:1049D000DA6812F0100F31D16A69D968C1F3820127
:1049E00049008A402F69042F36D02868603353F875
:1049F000271001F0004100F0F84002430A4343F859
:104A00002720236828696A7E012A1FD03246603336
:104A100053F8201021F000410A4343F82020206879
:104A200029692B7E012B14D0026922F4F04201F097
:104A30001F0306FA03F31343036194E76A69D96815
:104A4000890801F0040149008A40CBE74FF0004299
:104A5000DDE74FF40066E7E71A6E02F0F8422968D6
:104A6000B2EB816F1DD02268536E03F0F8432968C2
:104A7000B3EB816F1AD02268936E03F0F843296874
:104A8000B3EB816F17D02268D36E03F0F843296827
:104A9000B3EB816F7FF467AFD36E23F00043D3662F
:104AA00061E71A6E22F000421A66DCE7536E23F0CB
:104AB00000435366DFE7936E23F000439366E2E71B
:104AC00020684E4B984205D04D4B98422BD0FFF7B3
:104AD0000FFD66E72B684B4A93424AD04A4A9342FD
:104AE00049D04A4A934248D0494A934247D002F1BA
:104AF00086621032934244D0464A934243D002F138
:104B0000042202F5401293423FD002F1866202F580
:104B1000006293423BD0404A93423AD03F4A93428C
:104B2000D5D13F49D3E72B68364A934233D0364A32
:104B3000934232D0354A934231D0354A934230D0F5
:104B400002F18662103293422DD0324A93422CD029
:104B500002F1042202F54012934228D002F186624B
:104B600002F50062934224D02C4A9342AFD12C49E3
:104B7000ADE70121ABE72B49A9E72B49A7E72B4973
:104B8000A5E72B49A3E72B49A1E72B499FE72B4931
:104B90009DE72B499BE7012199E7224997E72249A5
:104BA00095E7224993E7224991E722498FE7224975
:104BB0008DE722498BE7234A916801F0E075A2F561
:104BC0004072926812F0010200D001220C48806805
:104BD00010F0010F40F08880002A40F085801A4ACA
:104BE000934237D0194A934258D0194A934268D019
:104BF000002095E6FFFF0F000000FF470020024065
:104C00000021024002003004040060080800900CFB
:104C10001000C0100004002A000021430000844B53
:104C20000000B84F400020198000501D0001802175
:104C30000002B0250008302E0010603200209036AF
:104C40000000524700230240000084CB0040C0BA5D
:104C50000000B8CF11F4000FC4D12268284B9A424B
:104C600001D000205CE645F4000326498A6822F062
:104C7000E07213438B60244B1B689B09234AA2FB01
:104C800003239B0901335B00019302E0019B013B7D
:104C90000193019B002BF9D1002041E611F0807FA8
:104CA000A3D12268164B9A4201D0002038E645F085
:104CB000807314498A6822F0E07213438B600020ED
:104CC0002EE611F4800F17D122680D4B9A4201D0C5
:104CD000002025E645F480030A498A6822F0E07244
:104CE00013438B6000201BE6636D43F02003636574
:104CF000012015E6002013E6002011E6022012E64E
:104D000000210240002302400C000024632D3E05D8
:104D100038B503689A6812F0010F4DD104469968BE
:104D2000264A114209D0436D43F010034365836D59
:104D300043F00103836501203FE09968204A0A405F
:104D400042F001029A60FFF78DFB05461D4B9B6800
:104D500003F01F0322681C498A4205D011468A428B
:104D600005D023B1002028E0A1F58071F7E7236882
:104D70001A6812F0010F1DD19A6812F0010F05D1C7
:104D800099680F4A0A4042F001029A60FFF76AFBF5
:104D9000401B0228EBD923681B6813F0010FE6D1F2
:104DA000636D43F010036365A36D43F00103A365D6
:104DB000012002E0002000E0002038BD3F0000801C
:104DC000C0FFFF7F002302400021024038B53A4B6C
:104DD0009D6803689B6813F0040F69D1044605F0D1
:104DE0001F0590F85030012B64D0012380F850301B
:104DF000FFF78EFF002857D1626DA0F602731340B3
:104E000043F48073636523682C4A934234D01A4676
:104E1000934200D01DB9626D22F480126265626D0A
:104E200012F4805F2BD0A26D22F00602A2651C2234
:104E30001A60002384F850302368204A934221D01E
:104E40001A46934207D0092D1FD840F22121E9408C
:104E500011F0010F19D0DA6812F0007F05D0626DF1
:104E600022F4405242F4805262659968144A0A4022
:104E700042F004029A601CE0A2F58072C8E70022AA
:104E8000A265D4E7A2F58072DBE7636D43F480137B
:104E90006365D36813F0007F0BD0636D23F4405338
:104EA00043F48053636504E0002384F8503000E04D
:104EB000022038BD0220FCE700230240002102400E
:104EC000C0FFFF7F10B504463A4B9B6813F4403F88
:104ED00019D004F00BF86368B3F5003F05D0B3F5C3
:104EE000403F0ED0B3F5803F02D11B0CB0FBF3F076
:104EF000314B984241D82268936823F44073936001
:104F000010BD8008F4E74FF40020002105F0CCF933
:104F10006368B3F5101F2CD021D8B3F5E01F26D05D
:104F200004D9B3F5001FE3D14009E1E7B3F5801FD1
:104F300010D009D8B3F5002F0CD0B3F5402F09D00D
:104F4000B3F5802F06D0D3E7B3F5A01F02D0B3F599
:104F5000C01FCDD19B0C5B00B0FBF3F0C8E7B3F5ED
:104F6000201F08D0B3F5301FC2D1000AC0E70009E6
:104F7000BEE78009BCE7C009BAE7104B984207D8E2
:104F80002268936823F4407343F480739360B7E717
:104F90000B4B984207D82268936823F4407343F47C
:104FA00000739360ACE72268936843F440739360A6
:104FB000A6E700BF0023024021BCBE0041787D016E
:104FC00081F0FA0230B583B000230193002800F08D
:104FD000DF800446436DEBB123689A6812F0005FEE
:104FE00003D099686B4A0A409A6023689A6812F065
:104FF000805F1CD19968684A0A4042F080529A60EA
:10500000664B1B689B09664AA2FB03239B0901337D
:10501000019309E0FCF718FB0023A36584F85030E6
:10502000DAE7019B013B0193019B002BF9D1226838
:10503000936813F0805F40F08180636D43F010034C
:105040006365A36D43F00103A3650125936813F025
:10505000040300D00123616D11F0100F40F0908027
:10506000002B40F08D80636D23F4817343F00203C5
:105070006365936813F0010F12D14A4B9B6813F0DC
:10508000010300D00123484A926812F0010F07D1B2
:1050900033B9636845498A6822F47C1213438B60F4
:1050A000627D236B43EA4233A2681343227F43EAC3
:1050B0000243012A44D0626A22B102F47872A16AE2
:1050C0000A4313432168C868394A02401A43CA6038
:1050D0002268936813F0040300D00123916811F053
:1050E000080F1CD1DBB9217DE36A43EA8131D06826
:1050F000304B03400B43D36094F83830012B24D05D
:105100002268136923F0010313612268136923F0F5
:105110007043616B0B4313612046FFF7D3FEE368D6
:10512000012B24D02268136B23F00F031363636DEC
:1051300023F0030343F00103636526E0002585E7C0
:10514000226A013A43EA4243B5E7206802691A4BF2
:105150001340E26B511E226C42EA0142616C0A4329
:10516000A16C0A43134343F001030361CDE72168B7
:105170000B6B23F00F03A269013A13430B63D6E7CD
:10518000636D43F0100363650125284603B030BD0D
:105190000125FAE7C0FFFF5FC0FFFF6F0C0000248E
:1051A000632D3E0500200240002102400023024002
:1051B00003C0F0FFFCBFFFFF1EF800FC7047704704
:1051C000704770477047000090F85020012A77D050
:1051D00010B49BB00346012280F8502000221692A2
:1051E00017920068374A904231D000220192019A0A
:1051F000002A30D0926812F0040200D001228068A8
:1052000010F0040F49D1002A47D10A6862B32E4832
:10521000826822F440424C6822438260294A9268A4
:1052200012F0010200D001222848806810F0010F1E
:105230003ED1002A3ED1244CA068A2F57262024001
:105240000868896801430A43A26000202AE002F549
:1052500080720192CBE75A6D42F020025A6500221B
:1052600083F85020012020E017498A6822F4404248
:105270008A60144A926812F0010200D00122134998
:10528000896811F0010F17D1C2B90F498868A2F5DA
:10529000726202408A60002004E05A6D42F02002EF
:1052A0005A650120002283F850201BB010BC7047C3
:1052B0000020F7E70020F5E70020F3E70020F1E702
:1052C00002207047002002400023024000210240DB
:1052D000002807DB00F01F02400901239340024A27
:1052E00042F82030704700BF00E100E0002804DBF6
:1052F0000901C9B2044B1954704700F00F000901AD
:10530000C9B2024B1954704700E400E014ED00E00C
:1053100000B500F00700C0F1070CBCF1040F28BF76
:105320004FF0040C031D062B0FD9C31E4FF0FF3E98
:105330000EFA0CF021EA000199400EFA03FE22EA6F
:105340000E0241EA02005DF804FB0023EEE70000D4
:105350000649CB6823F4E0631B041B0C000200F435
:10536000E0600343024A1A43CA60704700ED00E060
:105370000000FA0510B50446054BD868C0F30220BA
:10538000FFF7C6FF01462046FFF7B0FF10BD00BF84
:1053900000ED00E008B5FFF79BFF08BD0138B0F154
:1053A000807F0BD24FF0E0235861054AF02182F84C
:1053B00023100020986107221A617047012070476E
:1053C00000ED00E0BFF35F8F044B5A6A22F4803295
:1053D0005A620022C3F89420704700BF00ED00E03D
:1053E00040F00100054BC3F894005A6A42F4803241
:1053F0005A62BFF34F8FBFF36F8F704700ED00E02D
:105400004378144AC2F89830D2F8A03023F0010350
:10541000C2F8A0304368C2F89C30017BC37A1B06F7
:1054200043EA0173817A43EAC143417B43EA814302
:10543000817B43EA4143C17B43EA0143417A43EA2A
:105440000123017A43EA410301780B43C2F8A030FB
:10545000704700BF00ED00E0F0B4876D0468724E45
:10546000724DAC4218BFB44242D01835AC423FD066
:105470001835AC423CD01835AC4239D01835AC4266
:1054800036D01835AC4233D01835AC4230D005F5A3
:105490005675AC422CD01835AC4229D01835AC42E8
:1054A00026D01835AC4223D01835AC4220D0183560
:1054B000AC421DD01835AC421AD01835AC4217D0CA
:1054C0005B4DAC4214D01435AC4211D01435AC4213
:1054D0000ED01435AC420BD01435AC4208D0143584
:1054E000AC4205D01435AC4202D01435AC4207D1E1
:1054F000446E856E6560C46E14B1046F456F65605F
:105500000468494E494DAC4218BFB4426AD01835C0
:10551000AC4267D01835AC4264D01835AC4261D08B
:105520001835AC425ED01835AC425BD01835AC4271
:1055300058D005F55675AC4254D01835AC4251D010
:105540001835AC424ED01835AC424BD01835AC4271
:1055500048D01835AC4245D01835AC4242D0183549
:10556000AC423FD0334E344DAC4218BFB44229D088
:10557000324DAC4226D01435AC4223D01435AC4267
:1055800020D01435AC421DD01435AC421AD014359D
:10559000AC4217D0264DAC4214D01435AC4211D0D9
:1055A0001435AC420ED01435AC420BD01435AC429D
:1055B00008D01435AC4205D01435AC4202D01435B5
:1055C000AC4224D1C46D04F01F050124AC407C60C2
:1055D000046863608368402B20D003689960036887
:1055E000DA6014E0C46D04F01F0C3F2404FA0CF4DC
:1055F000BC6005682C6824F480242C600468636017
:105600008368402B05D0036899600368DA60F0BCBA
:10561000704703689A600368D960F8E703689A6086
:105620000368D960F3E700BF100002402800024081
:1056300008540258082C02481C2C0248302C0248FE
:1056400003682749274A934218BF8B422FD018324C
:1056500093422CD01832934229D01832934226D04C
:105660001832934223D01832934220D018329342FA
:105670001DD002F55672934219D01832934216D0BB
:105680001832934213D01832934210D018329342FA
:105690000DD0183293420AD01832934207D01832F4
:1056A000934204D023F0FF038365806D704710B4EC
:1056B000D9B210390C4AA2FB0142C2F302120B4CC0
:1056C000A25CC2655F2906D96FF3090304338365C1
:1056D000806D10BC70476FF309038365F8E700BF66
:1056E0001000024028000240ABAAAAAAE0C30108A9
:1056F00083699BB9836A012B0AD0022B02D00BB1BC
:1057000000207047C36A13F0807F2AD100207047C1
:10571000C36AB3F1C07F26D000207047B3F5005FA5
:105720000AD0836A022B26D9032B26D1C36A13F031
:10573000807F24D100207047836A032B03D8DFE8E1
:1057400003F01404140A00207047C36A13F0807F2A
:105750000DD100207047C36AB3F1C07F09D000208B
:1057600070470120704701207047012070470120D9
:1057700070470120704701207047002070470120CA
:105780007047000003682149214A934218BF8B42A9
:1057900027D01432934224D01432934221D01432B1
:1057A00093421ED0143293421BD01432934218D02D
:1057B0001432934215D0DAB2103A1649A1FB021204
:1057C000120915491944A8291ED9144B13449B00EA
:1057D0000366134B436602F01F0201239340836666
:1057E0007047DBB2083B0F4AA2FB03230E4A02EBD1
:1057F0001312920002660D4A4266C3F3041301229B
:1058000002FA03F3836670470832DEE70854025851
:105810001C540258ABAAAAAAF0FBFDBF00820010DC
:1058200080080240CDCCCCCC00960016805802589F
:1058300001794A1E072A2BD830B40368154D164C3F
:10584000A34218BFAB4218D01434A34215D014346D
:10585000A34212D01434A3420FD01434A3420CD06C
:105860001434A34209D01434A34206D00B4B0B448A
:105870009B00C3660A4B036705E00A4B0B449B0081
:10588000C366094B036701239340436730BC7047ED
:10589000704700BF085402581C5402583F82001041
:1058A000400902403F9600164059025870B5044620
:1058B000FEF7D8FD002C00F0D98105462368634926
:1058C000634A934218BF8B420CBF0121002170D064
:1058D000183293426DD0183293426AD018329342F4
:1058E00067D01832934264D01832934261D0183294
:1058F00093425ED002F5567293425AD018329342C8
:1059000057D01832934254D01832934251D01832A3
:1059100093424ED0183293424BD01832934248D023
:105920001832934245D04B494B4A934218BF8B42A1
:1059300000F05481494A934200F05081143293425E
:1059400000F04C811432934200F0488114329342AB
:1059500000F044811432934200F0408114329342AB
:1059600000F03C813E4A934200F038811432934269
:1059700000F034811432934200F0308114329342AB
:1059800000F02C811432934200F0288114329342AB
:1059900000F024811432934200F0208114329342AB
:1059A00000F01C8140236365032384F83530012017
:1059B0004AE0022284F83520002284F8342079BBA2
:1059C000284A93422CD01832934229D0183293425D
:1059D00026D01832934223D01832934220D0183266
:1059E00093421DD002F55672934219D01832934259
:1059F00016D01832934213D01832934210D0183276
:105A000093420DD0183293420AD01832934207D0F5
:105A10001832934204D01A6822F001021A6003E09F
:105A20001A6822F001021A6023681A6812F0010F46
:105A30001AD0FEF717FD431B052BF5D9202363650C
:105A4000032384F83530012070BD00BF10000240F0
:105A500028000240082C02481C2C0248302C024826
:105A600008540258400002401A6881491140A26857
:105A7000E06802432069024360690243A06902436F
:105A8000E0690243206A02430A43616A042900F084
:105A900090806168522900F296803F29C0F08E8084
:105AA0003F39744820FA01F111F0010F01D042F49E
:105AB00080121A602668756925F00705636A1D4320
:105AC000042B08D1A36A1D43E36A23B12046FFF7E4
:105AD0000FFE00287CD175612046FFF7B1FDE36D14
:105AE00003F01F023F239340836023686249634AA7
